{
  "_format": "hh-sol-artifact-1",
  "contractName": "dBank",
  "sourceName": "contracts/dBank.sol",
  "abi": [
    {
      "inputs": [
        {
          "internalType": "contract Token",
          "name": "_token",
          "type": "address"
        }
      ],
      "stateMutability": "nonpayable",
      "type": "constructor"
    },
    {
      "anonymous": false,
      "inputs": [
        {
          "indexed": true,
          "internalType": "address",
          "name": "user",
          "type": "address"
        },
        {
          "indexed": false,
          "internalType": "uint256",
          "name": "etherAmount",
          "type": "uint256"
        },
        {
          "indexed": false,
          "internalType": "uint256",
          "name": "tokensToMint",
          "type": "uint256"
        }
      ],
      "name": "Borrow",
      "type": "event"
    },
    {
      "anonymous": false,
      "inputs": [
        {
          "indexed": true,
          "internalType": "address",
          "name": "user",
          "type": "address"
        },
        {
          "indexed": false,
          "internalType": "uint256",
          "name": "etherAmount",
          "type": "uint256"
        },
        {
          "indexed": false,
          "internalType": "uint256",
          "name": "timeStart",
          "type": "uint256"
        }
      ],
      "name": "Deposit",
      "type": "event"
    },
    {
      "anonymous": false,
      "inputs": [
        {
          "indexed": true,
          "internalType": "address",
          "name": "user",
          "type": "address"
        },
        {
          "indexed": false,
          "internalType": "uint256",
          "name": "fee",
          "type": "uint256"
        }
      ],
      "name": "PayOff",
      "type": "event"
    },
    {
      "anonymous": false,
      "inputs": [
        {
          "indexed": true,
          "internalType": "address",
          "name": "user",
          "type": "address"
        },
        {
          "indexed": false,
          "internalType": "uint256",
          "name": "etherAmount",
          "type": "uint256"
        },
        {
          "indexed": false,
          "internalType": "uint256",
          "name": "depositTime",
          "type": "uint256"
        },
        {
          "indexed": false,
          "internalType": "uint256",
          "name": "interest",
          "type": "uint256"
        }
      ],
      "name": "Withdraw",
      "type": "event"
    },
    {
      "inputs": [],
      "name": "borrow",
      "outputs": [],
      "stateMutability": "payable",
      "type": "function"
    },
    {
      "inputs": [
        {
          "internalType": "address",
          "name": "",
          "type": "address"
        }
      ],
      "name": "collateralEther",
      "outputs": [
        {
          "internalType": "uint256",
          "name": "",
          "type": "uint256"
        }
      ],
      "stateMutability": "view",
      "type": "function"
    },
    {
      "inputs": [],
      "name": "deposit",
      "outputs": [],
      "stateMutability": "payable",
      "type": "function"
    },
    {
      "inputs": [
        {
          "internalType": "address",
          "name": "",
          "type": "address"
        }
      ],
      "name": "depositStart",
      "outputs": [
        {
          "internalType": "uint256",
          "name": "",
          "type": "uint256"
        }
      ],
      "stateMutability": "view",
      "type": "function"
    },
    {
      "inputs": [
        {
          "internalType": "address",
          "name": "",
          "type": "address"
        }
      ],
      "name": "etherBalanceOf",
      "outputs": [
        {
          "internalType": "uint256",
          "name": "",
          "type": "uint256"
        }
      ],
      "stateMutability": "view",
      "type": "function"
    },
    {
      "inputs": [
        {
          "internalType": "address",
          "name": "",
          "type": "address"
        }
      ],
      "name": "isBorrowed",
      "outputs": [
        {
          "internalType": "bool",
          "name": "",
          "type": "bool"
        }
      ],
      "stateMutability": "view",
      "type": "function"
    },
    {
      "inputs": [
        {
          "internalType": "address",
          "name": "",
          "type": "address"
        }
      ],
      "name": "isDeposited",
      "outputs": [
        {
          "internalType": "bool",
          "name": "",
          "type": "bool"
        }
      ],
      "stateMutability": "view",
      "type": "function"
    },
    {
      "inputs": [],
      "name": "payOff",
      "outputs": [],
      "stateMutability": "nonpayable",
      "type": "function"
    },
    {
      "inputs": [],
      "name": "withdraw",
      "outputs": [],
      "stateMutability": "payable",
      "type": "function"
    }
  ],
  "bytecode": "0x608060405234801561001057600080fd5b50604051610b6f380380610b6f83398101604081905261002f91610054565b600080546001600160a01b0319166001600160a01b0392909216919091179055610082565b600060208284031215610065578081fd5b81516001600160a01b038116811461007b578182fd5b9392505050565b610ade806100916000396000f3fe6080604052600436106100865760003560e01c806375a40d2a1161005957806375a40d2a1461012a578063cdebd93214610157578063d0e30db014610187578063e68d35691461018f578063ff87930a1461019757600080fd5b8063179fc99f1461008b5780633ccfd60b146100cb5780633fac68d5146100d557806373732024146100ea575b600080fd5b34801561009757600080fd5b506100b86100a636600461097b565b60016020526000908152604090205481565b6040519081526020015b60405180910390f35b6100d36101c4565b005b3480156100e157600080fd5b506100d3610390565b3480156100f657600080fd5b5061011a61010536600461097b565b60036020526000908152604090205460ff1681565b60405190151581526020016100c2565b34801561013657600080fd5b506100b861014536600461097b565b60046020526000908152604090205481565b34801561016357600080fd5b5061011a61017236600461097b565b60056020526000908152604090205460ff1681565b6100d36105b4565b6100d3610751565b3480156101a357600080fd5b506100b86101b236600461097b565b60026020526000908152604090205481565b3360009081526003602052604090205460ff16151560011461022d5760405162461bcd60e51b815260206004820152601a60248201527f4572726f722c206e6f2070726576697573206465706f7369742e00000000000060448201526064015b60405180910390fd5b3360009081526001602090815260408083205460029092528220549091906102559042610a7b565b905060006204d0b8610268600a85610a3c565b6102729190610a3c565b905060006102808284610a5c565b3360008181526001602052604080822082905551929350909186156108fc0291879190818181858888f193505050501580156102c0573d6000803e3d6000fd5b506000546040516340c10f1960e01b8152336004820152602481018390526001600160a01b03909116906340c10f1990604401600060405180830381600087803b15801561030d57600080fd5b505af1158015610321573d6000803e3d6000fd5b50503360008181526002602090815260408083208390556003825291829020805460ff1916905581518981529081018890529081018590529092507f02f25270a4d87bea75db541cdfe559334a275b4a233520ed6c0a2429667cca94915060600160405180910390a250505050565b3360009081526005602052604090205460ff1615156001146103ed5760405162461bcd60e51b81526020600482015260166024820152754572726f722c206c6f616e206e6f742061637469766560501b6044820152606401610224565b600080543380835260046020526040909220546001600160a01b03909116916323b872dd91309061042090600290610a3c565b6040516001600160e01b031960e086901b1681526001600160a01b0393841660048201529290911660248301526044820152606401602060405180830381600087803b15801561046f57600080fd5b505af1158015610483573d6000803e3d6000fd5b505050506040513d601f19601f820116820180604052508101906104a791906109a9565b6104f35760405162461bcd60e51b815260206004820152601b60248201527f4572726f722c2063616e2774207265636569766520746f6b656e7300000000006044820152606401610224565b3360009081526004602052604081205461050f90600a90610a3c565b33600081815260046020526040902054919250906108fc90610532908490610a7b565b6040518115909202916000818181858888f1935050505015801561055a573d6000803e3d6000fd5b503360008181526004602090815260408083208390556005825291829020805460ff1916905590518381527ffd9bbd044fa427970e4d882ebbb4a89ce422dc29b23f2777a14a93ecdf42c64491015b60405180910390a250565b3360009081526003602052604090205460ff16156106145760405162461bcd60e51b815260206004820152601d60248201527f4572726f722c206465706f73697420616c7265616479206163746976650000006044820152606401610224565b6106416040518060400160405280600b81526020016a036b9b3973b30b63ab29d160ad1b81525034610911565b66038d7ea4c680003410156106a35760405162461bcd60e51b815260206004820152602260248201527f4572726f722c206465706f736974206d757374206265203e20302e30303120456044820152610a8960f31b6064820152608401610224565b336000908152600160205260409020546106be903490610a24565b336000908152600160209081526040808320939093556002905220546106e5904290610a24565b3360008181526002602090815260408083209490945560039052829020805460ff1916600117905590517f90890809c654f11d6e72a28fa60149770a0d11ec6c92319d6ceb2bb0a4ea1a15906107479034904290918252602082015260400190565b60405180910390a2565b66038d7ea4c680003410156107b75760405162461bcd60e51b815260206004820152602660248201527f4572726f722c20636f6c6c61746572616c206d757374206265203e3d20302e3060448201526506062408aa8960d31b6064820152608401610224565b3360009081526005602052604090205460ff16156108175760405162461bcd60e51b815260206004820152601960248201527f4572726f722c206c6f616e20616c72656164792074616b656e000000000000006044820152606401610224565b33600090815260046020526040902054610832903490610a24565b3360009081526004602052604081208290559061085190600290610a3c565b6000546040516340c10f1960e01b8152336004820152602481018390529192506001600160a01b0316906340c10f1990604401600060405180830381600087803b15801561089e57600080fd5b505af11580156108b2573d6000803e3d6000fd5b5050336000818152600560209081526040808320805460ff1916600117905560048252918290205482519081529081018690529193507fe1979fe4c35e0cef342fef5668e2c8e7a7e9f5d5d1ca8fee0ac6c427fa4153af9250016105a9565b61095682826040516024016109279291906109c9565b60408051601f198184030181529190526020810180516001600160e01b03166309710a9d60e41b17905261095a565b5050565b80516a636f6e736f6c652e6c6f67602083016000808483855afa5050505050565b60006020828403121561098c578081fd5b81356001600160a01b03811681146109a2578182fd5b9392505050565b6000602082840312156109ba578081fd5b815180151581146109a2578182fd5b6040815260008351806040840152815b818110156109f657602081870181015160608684010152016109d9565b81811115610a075782606083860101525b50602083019390935250601f91909101601f191601606001919050565b60008219821115610a3757610a37610a92565b500190565b600082610a5757634e487b7160e01b81526012600452602481fd5b500490565b6000816000190483118215151615610a7657610a76610a92565b500290565b600082821015610a8d57610a8d610a92565b500390565b634e487b7160e01b600052601160045260246000fdfea2646970667358221220c4b7ba8452d4a309204717ced0e849ea684028e1e01b890fa3d3019f5d3388bb64736f6c63430008040033",
  "linkReferences": {},
  "deployedLinkReferences": {}
}