{
  "_format": "hh-sol-artifact-1",
  "contractName": "Token",
  "sourceName": "contracts/Token.sol",
  "abi": [
    {
      "inputs": [],
      "stateMutability": "payable",
      "type": "constructor"
    },
    {
      "anonymous": false,
      "inputs": [
        {
          "indexed": true,
          "internalType": "address",
          "name": "owner",
          "type": "address"
        },
        {
          "indexed": true,
          "internalType": "address",
          "name": "spender",
          "type": "address"
        },
        {
          "indexed": false,
          "internalType": "uint256",
          "name": "value",
          "type": "uint256"
        }
      ],
      "name": "Approval",
      "type": "event"
    },
    {
      "anonymous": false,
      "inputs": [
        {
          "indexed": true,
          "internalType": "address",
          "name": "from",
          "type": "address"
        },
        {
          "indexed": false,
          "internalType": "address",
          "name": "to",
          "type": "address"
        }
      ],
      "name": "MinterChanged",
      "type": "event"
    },
    {
      "anonymous": false,
      "inputs": [
        {
          "indexed": true,
          "internalType": "address",
          "name": "from",
          "type": "address"
        },
        {
          "indexed": true,
          "internalType": "address",
          "name": "to",
          "type": "address"
        },
        {
          "indexed": false,
          "internalType": "uint256",
          "name": "value",
          "type": "uint256"
        }
      ],
      "name": "Transfer",
      "type": "event"
    },
    {
      "inputs": [
        {
          "internalType": "address",
          "name": "owner",
          "type": "address"
        },
        {
          "internalType": "address",
          "name": "spender",
          "type": "address"
        }
      ],
      "name": "allowance",
      "outputs": [
        {
          "internalType": "uint256",
          "name": "",
          "type": "uint256"
        }
      ],
      "stateMutability": "view",
      "type": "function"
    },
    {
      "inputs": [
        {
          "internalType": "address",
          "name": "spender",
          "type": "address"
        },
        {
          "internalType": "uint256",
          "name": "amount",
          "type": "uint256"
        }
      ],
      "name": "approve",
      "outputs": [
        {
          "internalType": "bool",
          "name": "",
          "type": "bool"
        }
      ],
      "stateMutability": "nonpayable",
      "type": "function"
    },
    {
      "inputs": [
        {
          "internalType": "address",
          "name": "account",
          "type": "address"
        }
      ],
      "name": "balanceOf",
      "outputs": [
        {
          "internalType": "uint256",
          "name": "",
          "type": "uint256"
        }
      ],
      "stateMutability": "view",
      "type": "function"
    },
    {
      "inputs": [],
      "name": "decimals",
      "outputs": [
        {
          "internalType": "uint8",
          "name": "",
          "type": "uint8"
        }
      ],
      "stateMutability": "view",
      "type": "function"
    },
    {
      "inputs": [
        {
          "internalType": "address",
          "name": "spender",
          "type": "address"
        },
        {
          "internalType": "uint256",
          "name": "subtractedValue",
          "type": "uint256"
        }
      ],
      "name": "decreaseAllowance",
      "outputs": [
        {
          "internalType": "bool",
          "name": "",
          "type": "bool"
        }
      ],
      "stateMutability": "nonpayable",
      "type": "function"
    },
    {
      "inputs": [
        {
          "internalType": "address",
          "name": "spender",
          "type": "address"
        },
        {
          "internalType": "uint256",
          "name": "addedValue",
          "type": "uint256"
        }
      ],
      "name": "increaseAllowance",
      "outputs": [
        {
          "internalType": "bool",
          "name": "",
          "type": "bool"
        }
      ],
      "stateMutability": "nonpayable",
      "type": "function"
    },
    {
      "inputs": [
        {
          "internalType": "address",
          "name": "account",
          "type": "address"
        },
        {
          "internalType": "uint256",
          "name": "amount",
          "type": "uint256"
        }
      ],
      "name": "mint",
      "outputs": [],
      "stateMutability": "nonpayable",
      "type": "function"
    },
    {
      "inputs": [],
      "name": "minter",
      "outputs": [
        {
          "internalType": "address",
          "name": "",
          "type": "address"
        }
      ],
      "stateMutability": "view",
      "type": "function"
    },
    {
      "inputs": [],
      "name": "name",
      "outputs": [
        {
          "internalType": "string",
          "name": "",
          "type": "string"
        }
      ],
      "stateMutability": "view",
      "type": "function"
    },
    {
      "inputs": [
        {
          "internalType": "address",
          "name": "dBank",
          "type": "address"
        }
      ],
      "name": "passMinterRole",
      "outputs": [
        {
          "internalType": "bool",
          "name": "",
          "type": "bool"
        }
      ],
      "stateMutability": "nonpayable",
      "type": "function"
    },
    {
      "inputs": [],
      "name": "symbol",
      "outputs": [
        {
          "internalType": "string",
          "name": "",
          "type": "string"
        }
      ],
      "stateMutability": "view",
      "type": "function"
    },
    {
      "inputs": [],
      "name": "totalSupply",
      "outputs": [
        {
          "internalType": "uint256",
          "name": "",
          "type": "uint256"
        }
      ],
      "stateMutability": "view",
      "type": "function"
    },
    {
      "inputs": [
        {
          "internalType": "address",
          "name": "recipient",
          "type": "address"
        },
        {
          "internalType": "uint256",
          "name": "amount",
          "type": "uint256"
        }
      ],
      "name": "transfer",
      "outputs": [
        {
          "internalType": "bool",
          "name": "",
          "type": "bool"
        }
      ],
      "stateMutability": "nonpayable",
      "type": "function"
    },
    {
      "inputs": [
        {
          "internalType": "address",
          "name": "sender",
          "type": "address"
        },
        {
          "internalType": "address",
          "name": "recipient",
          "type": "address"
        },
        {
          "internalType": "uint256",
          "name": "amount",
          "type": "uint256"
        }
      ],
      "name": "transferFrom",
      "outputs": [
        {
          "internalType": "bool",
          "name": "",
          "type": "bool"
        }
      ],
      "stateMutability": "nonpayable",
      "type": "function"
    }
  ],
  "bytecode": "0x601c60808181527f44657363656e7472616c697a65642042616e6b2043757272656e63790000000060a0908152610100604052600360c08181526244424360e81b60e052929361004f929061007d565b50805161006390600490602084019061007d565b5050600580546001600160a01b0319163317905550610151565b82805461008990610116565b90600052602060002090601f0160209004810192826100ab57600085556100f1565b82601f106100c457805160ff19168380011785556100f1565b828001600101855582156100f1579182015b828111156100f15782518255916020019190600101906100d6565b506100fd929150610101565b5090565b5b808211156100fd5760008155600101610102565b600181811c9082168061012a57607f821691505b6020821081141561014b57634e487b7160e01b600052602260045260246000fd5b50919050565b610b23806101606000396000f3fe608060405234801561001057600080fd5b50600436106100ea5760003560e01c806340c10f191161008c578063a457c2d711610066578063a457c2d7146101e8578063a9059cbb146101fb578063d7fc5b151461020e578063dd62ed3e1461022157600080fd5b806340c10f19146101a257806370a08231146101b757806395d89b41146101e057600080fd5b806318160ddd116100c857806318160ddd1461015b57806323b872dd1461016d578063313ce56714610180578063395093511461018f57600080fd5b806306fdde03146100ef578063075461721461010d578063095ea7b314610138575b600080fd5b6100f761025a565b6040516101049190610a1a565b60405180910390f35b600554610120906001600160a01b031681565b6040516001600160a01b039091168152602001610104565b61014b6101463660046109f1565b6102ec565b6040519015158152602001610104565b6002545b604051908152602001610104565b61014b61017b3660046109b6565b610302565b60405160128152602001610104565b61014b61019d3660046109f1565b6103b8565b6101b56101b03660046109f1565b6103ef565b005b61015f6101c5366004610963565b6001600160a01b031660009081526020819052604090205490565b6100f76103fd565b61014b6101f63660046109f1565b61040c565b61014b6102093660046109f1565b6104a7565b61014b61021c366004610963565b6104b4565b61015f61022f366004610984565b6001600160a01b03918216600090815260016020908152604080832093909416825291909152205490565b60606003805461026990610a9c565b80601f016020809104026020016040519081016040528092919081815260200182805461029590610a9c565b80156102e25780601f106102b7576101008083540402835291602001916102e2565b820191906000526020600020905b8154815290600101906020018083116102c557829003601f168201915b5050505050905090565b60006102f933848461056c565b50600192915050565b600061030f848484610690565b6001600160a01b0384166000908152600160209081526040808320338452909152902054828110156103995760405162461bcd60e51b815260206004820152602860248201527f45524332303a207472616e7366657220616d6f756e74206578636565647320616044820152676c6c6f77616e636560c01b60648201526084015b60405180910390fd5b6103ad85336103a88685610a85565b61056c565b506001949350505050565b3360008181526001602090815260408083206001600160a01b038716845290915281205490916102f99185906103a8908690610a6d565b6103f98282610868565b5050565b60606004805461026990610a9c565b3360009081526001602090815260408083206001600160a01b03861684529091528120548281101561048e5760405162461bcd60e51b815260206004820152602560248201527f45524332303a2064656372656173656420616c6c6f77616e63652062656c6f77604482015264207a65726f60d81b6064820152608401610390565b61049d33856103a88685610a85565b5060019392505050565b60006102f9338484610690565b6005546000906001600160a01b031633146105115760405162461bcd60e51b815260206004820152601a60248201527f6e6f7420616c6c6f77656420746f206d696e7420746f6b656e730000000000006044820152606401610390565b600580546001600160a01b0319166001600160a01b03841690811790915560405190815233907f3b0007eb941cf645526cbb3a4fdaecda9d28ce4843167d9263b536a1f1edc0f69060200160405180910390a2506001919050565b6001600160a01b0383166105ce5760405162461bcd60e51b8152602060048201526024808201527f45524332303a20617070726f76652066726f6d20746865207a65726f206164646044820152637265737360e01b6064820152608401610390565b6001600160a01b03821661062f5760405162461bcd60e51b815260206004820152602260248201527f45524332303a20617070726f766520746f20746865207a65726f206164647265604482015261737360f01b6064820152608401610390565b6001600160a01b0383811660008181526001602090815260408083209487168084529482529182902085905590518481527f8c5be1e5ebec7d5bd14f71427d1e84f3dd0314c0f7b2291e5b200ac8c7c3b925910160405180910390a3505050565b6001600160a01b0383166106f45760405162461bcd60e51b815260206004820152602560248201527f45524332303a207472616e736665722066726f6d20746865207a65726f206164604482015264647265737360d81b6064820152608401610390565b6001600160a01b0382166107565760405162461bcd60e51b815260206004820152602360248201527f45524332303a207472616e7366657220746f20746865207a65726f206164647260448201526265737360e81b6064820152608401610390565b6001600160a01b038316600090815260208190526040902054818110156107ce5760405162461bcd60e51b815260206004820152602660248201527f45524332303a207472616e7366657220616d6f756e7420657863656564732062604482015265616c616e636560d01b6064820152608401610390565b6107d88282610a85565b6001600160a01b03808616600090815260208190526040808220939093559085168152908120805484929061080e908490610a6d565b92505081905550826001600160a01b0316846001600160a01b03167fddf252ad1be2c89b69c2b068fc378daa952ba7f163c4a11628f55a4df523b3ef8460405161085a91815260200190565b60405180910390a350505050565b6001600160a01b0382166108be5760405162461bcd60e51b815260206004820152601f60248201527f45524332303a206d696e7420746f20746865207a65726f2061646472657373006044820152606401610390565b80600260008282546108d09190610a6d565b90915550506001600160a01b038216600090815260208190526040812080548392906108fd908490610a6d565b90915550506040518181526001600160a01b038316906000907fddf252ad1be2c89b69c2b068fc378daa952ba7f163c4a11628f55a4df523b3ef9060200160405180910390a35050565b80356001600160a01b038116811461095e57600080fd5b919050565b600060208284031215610974578081fd5b61097d82610947565b9392505050565b60008060408385031215610996578081fd5b61099f83610947565b91506109ad60208401610947565b90509250929050565b6000806000606084860312156109ca578081fd5b6109d384610947565b92506109e160208501610947565b9150604084013590509250925092565b60008060408385031215610a03578182fd5b610a0c83610947565b946020939093013593505050565b6000602080835283518082850152825b81811015610a4657858101830151858201604001528201610a2a565b81811115610a575783604083870101525b50601f01601f1916929092016040019392505050565b60008219821115610a8057610a80610ad7565b500190565b600082821015610a9757610a97610ad7565b500390565b600181811c90821680610ab057607f821691505b60208210811415610ad157634e487b7160e01b600052602260045260246000fd5b50919050565b634e487b7160e01b600052601160045260246000fdfea26469706673582212204638b9f38dc2423427490fea51342221d5b7153120feba458bc226cf7f6f901c64736f6c63430008040033",
  "linkReferences": {},
  "deployedLinkReferences": {}
}